:020000040800F2
:1000000048070020910100080D1D0008051D00088B
:10001000091D000819060008211D00080000000045
:10002000000000000000000000000000151D000896
:100030002906000800000000111D0008191D000815
:10004000AB010008AB010008AB010008AB010008E0
:10005000AB010008AB010008AB010008AB010008D0
:10006000AB010008350600083D0600081D06000823
:10007000AB010008AB010008AB010008AB010008B0
:10008000AB010008AB010008AB010008AB010008A0
:10009000AB010008AB010008AB01000845060008F1
:1000A000AB010008AB010008AB010008AB01000880
:1000B000AB010008AB010008AB010008AB01000870
:1000C000AB010008AB010008AB010008AB01000860
:1000D000AB010008AB010008AB010008AB01000850
:1000E0002D060008AB010008AB01000800F002F883
:1000F00000F03FF80AA090E8000C82448344AAF183
:100100000107DA4501D100F034F8AFF2090EBAE880
:100110000F0013F0010F18BFFB1A43F0010318473B
:10012000A41E0000C41E0000103A24BF78C878C185
:10013000FAD8520724BF30C830C144BF04680C60ED
:10014000704700000023002400250026103A28BF35
:1001500078C1FBD8520728BF30C148BF0B60704739
:10016000752900F04F80002070471FB51FBD10B5E6
:1001700010BD00F080F91146FFF7F7FF01F0D2FD46
:1001800000F09EF903B4FFF7F2FF03BC00F0A6F9FC
:100190000948804709480047FEE7FEE7FEE7FEE71B
:1001A000FEE7FEE7FEE7FEE7FEE7FEE70448054957
:1001B000054A064B704700001D1D0008ED000008B1
:1001C0004801002048070020480300204803002081
:1001D0000FB41CB50C0007AA009001D02044401EAB
:1001E000074B7B4469460190069800F024F9002CE7
:1001F00003D06946002000F031F91CBC5DF814FB07
:10020000810200002DE9F04106460024106875299E
:10021000314616A510D0AFF30080002802DA404224
:1002200013A507E031688A0701D512A502E0490746
:1002300004D511A5012401E0AFF3008000210A22BA
:1002400006F1240709E0B0FBF2FCB0FBF2F302FB7D
:100250001C00303078541846491C0028F3D123463E
:100260002A463046BDE8F04100F086B800000000A4
:100270002D0000002B000000200000002DE9F041BF
:100280000F460546002028622846E968884770B373
:10029000252805D0D5E901219047286A401CF2E7BE
:1002A000E9682846002688476C2804460AD0682C4E
:1002B00008D04C2C35D06A2C31D0742C31D07A2C0B
:1002C0002FD016E0E968064628468847B042044623
:1002D00008D16C2E23D04FF480662846E968884701
:1002E000044606E06C2E03D04FF4807601E01EE059
:1002F0004026E4B1A4F14100192802D8203446F484
:1003000000663A46214628462E60FFF729FF60B175
:10031000012808D0FF1D27F007070837B4E780261B
:10032000DBE70026D9E73F1DAEE72046B2E7286AA3
:10033000BDE8F08110B5431C02E010F8011B71B15B
:100340008107FAD14FF0013202C88C1A8C4314EAAB
:10035000C211F9D0C01A0A0603D0C01E10BDC01ABF
:1003600010BD0A0401D0801E10BD0902FCD0401E41
:1003700010BD7047704770472DE9F0470D4699460C
:100380009246044600F124080168880604D5E06915
:1003900021F01001216000E00120A84201DD471B8F
:1003A00000E00027A1697A1902EB0900081AA06190
:1003B0002078C00602D42046AFF30080002608E073
:1003C000D4E901211AF806009047206A401C761CE7
:1003D00020624E45F4DB2078C0060AD52046AFF3F4
:1003E000008006E0D4E9012130209047206A401CBB
:1003F0002062381EA7F10107F4DC07E0D4E90121EF
:1004000018F805009047206A401C2062281EA5F1BC
:100410000105F3DC2046AFF300802078000602D50A
:100420000220BDE8F0870120FBE7000001694A1CBB
:1004300002610878704700B58FB0CDE90131002125
:10044000059105497944CDE9031011466846FFF747
:1004500015FF0FB000BD0000E5FFFFFF0A6802F8BE
:10046000010B0A607047D1E900239A4202D2531C63
:100470000B6010707047754600F02CF8AE46050012
:100480006946534620F00700854618B020B5FFF7AF
:100490008DFEBDE820404FF000064FF000074FF002
:1004A00000084FF0000BAC46ACE8C009ACE8C0094E
:1004B000ACE8C009ACE8C00921F007018D467047DF
:1004C00010B50446AFF300802046BDE81040FFF7AA
:1004D00059BE000000487047100000200149182054
:1004E000ABBEFEE726000200704700000146406AEE
:1004F000826A12F0500F03D0006A026B0846104760
:100500000168826A42F400728262896801F46021A3
:10051000B1F5602F01D1017B11B100F059B900BFD5
:10052000816A21F480718162816AC90448BF00F048
:100530004FB9816A41F00101816200F049B90000C0
:10054000406A816A41F040018162C16A41F0040160
:10055000C16200F041B90000406A00F03BB9000000
:10056000B0B582B004460020019021688A68D207A5
:100570004FD1886840F00100886040F20800C2F264
:10058000000000684DF68361C4F21B31A0FB01013D
:10059000880C01900198A0B1019801380190019850
:1005A00078B1019801380190019850B10198013853
:1005B0000190019828B10198013801900198002814
:1005C000EAD100F06DFD21688968C9071CD1054694
:1005D00003E000BF8068C0071AD100F061FD411B35
:1005E00020680329F6D38168C907F3D1A06A40F0D7
:1005F0001000A062E06A40F00100E062002084F890
:100600002400012002B0B0BD002002B0B0BD00BF88
:10061000002002B0B0BD0000FEE7000040F2B400D0
:10062000C2F2000000F06ABA704700004FF4806028
:1006300000F020BC082000F01DBC0000102000F0DD
:1006400019BC0000202000F015BC0000EFF3108062
:1006500072B600BFFEE70000B0B581B00022009284
:1006600090F82420012A03D10221084601B0B0BD30
:100670004B680122062B80F8242023D8D0F800C034
:1006800003EB830362465D1F1F2352F834EF03FA26
:1006900005F40B682EEA040E03FA05F444EA0E058D
:1006A000092B15602DD8DCF8102003EB4303072538
:1006B00089689D40AA4399401143CCF8101000214D
:1006C0003FE000BFD0F800C00C2B624606D852F8BD
:1006D00030EF03EB8303A3F1230405E052F82CEF82
:1006E00003EB8303A3F141041F2303FA04F50B6812
:1006F0002EEA050E03FA04F444EA0E05092B1560F0
:10070000D1D903EB4305DCF80C201E3D0724896892
:10071000AC40A243A940114323F00102102ACCF8B7
:100720000C100DD142F20841C4F20101A1F10802FE
:1007300094450DD0816A41F020018162012100E0E1
:100740000021002280F82420084601B0B0BD00BF7F
:100750000A68120230D40A68102B42F400020A60C0
:100760002CD140F20801C2F2000109684DF6836203
:10077000C4F21B32A1FB0212910C01EB8101490072
:1007800000910099E1B10099013900910099C9B136
:100790000099013900910099B1B100990139009196
:1007A000009999B1009901390091009900294FF001
:1007B0000001E8D1C5E700BF0021C2E70021C0E782
:1007C0000021BEE70021BCE70021BAE70021B8E71D
:1007D000704700007047000070470000002804BF09
:1007E0000120704770B50646044656F8280F28B118
:1007F00021688868C0070CD115E000BF0020E062C6
:1008000084F82400204600F09DF821688868C0071D
:1008100009D0886820F00100886000F041FC216860
:100820008A68D20726D13068C0063AD4A06A41F25D
:10083000021290430230A062E069D4E9013240EA3A
:10084000030C531EB3FA83F35D091346B2F5807FA0
:1008500018BF2B02207D257B01284CEA450030D1B2
:1008600035B3A56A45F02005A562E56A45F00105A6
:10087000E56226E0054602E08868C007D3D000F0B4
:100880000FFC401B21680328F6D38868C007F3D00B
:10089000A06A40F01000A062E06A40F00100E0624F
:1008A000A06A306840F010010120316070BD00BFC7
:1008B000D4F818C04EF60005CFF6FF7505EB4C35A1
:1008C0002B434D68B2F5807F25F4694543EA050363
:1008D0004B608B684FF2FD75CFF6E17503EA0503B7
:1008E00043EA00038B6001D0012A07D1226900236B
:1008F000CFF6F07303EB025201E000BF0022CB6A97
:1009000023F470031A43CA62896840F6FE62CFF688
:100910001F721140814207D10020E062A16A0122CA
:1009200062F30101316070BDA06A40F0100020F058
:100930000200A06254F82C0F40F00101012026466D
:10094000316070BD70B586B0044640F60000C4F258
:100950000100216800F5E0520026914205960496B8
:1009600002D006B070BD00BF41F21801C4F202010E
:100970000A6842F400720A600A6802F40072019286
:10098000019A0A6842F004020A60096801F0040151
:10099000019101990321CDE9021102A900F076FA33
:1009A00040F2B4050820C2F20005C4F202004FF480
:1009B0000072C5E9000605F1100080214FF40063C4
:1009C0004FF0200C80E80C102846C5E90261EE616A
:1009D00000F06EF9002818BFFFF738FE25626C6240
:1009E00006B070BD70B515460446006842F60002B8
:1009F000C4F2010290420E4605D042F20041C4F218
:100A00000101884209D142F20440C4F201000068A9
:100A100010F4702F1CBF012070BD94F82400012831
:100A200004BF022070BD012084F824002046FFF797
:100A300097FD18B1002184F8241070BD42F20440E3
:100A40002168A26AC4F2010040F601739A4300F5DE
:100A50007F7302F580729942A26243D0A06A20F4AB
:100A60008010A0624868400504D5A06A012262F3A4
:100A70000D30A062A26A0020D2044FF0000244BFF1
:100A8000E26A22F00602E26284F82400206A40F260
:100A9000ED42C0F6000240F2595340F2415C00F1D1
:100AA000280EC0F60003C0F6000C8EE80C106FF0A4
:100AB00002020A608A682B4642F480728A604C31D6
:100AC000324600F039F92068816801F460228168BB
:100AD000B2F5602F0CBF41F4A00141F48011816098
:100AE000002070BD026812F4702FB7D0A26A42F4E1
:100AF0008012A26200684005BCD5B6E710B5016857
:100B0000D0E90FCEDCF800200B685C072CD504245C
:100B100004FA0EF4144027D00A68920603D40A6837
:100B200022F004020A602F22C4F20202914240F233
:100B30000402C4F2020261DD3023C4F202039942CE
:100B400078D04423C4F20203994279D05823C4F2E6
:100B50000203994240F080804FF480231360C16A01
:100B6000002940F08480A1E09C0729D5022404FAE2
:100B70000EF4144024D00A68920606D40A6822F0C3
:100B80000A020A60012280F821202F22C4F2020208
:100B9000914240F20402C4F202023FDD3023C4F26B
:100BA0000203994266D04423C4F20203994265D0FD
:100BB0005823C4F20203994266D14FF400336BE02C
:100BC0001B0773D5082303FA0EF31A4008BF10BDA4
:100BD0000A6822F00E020A60012101FA0EF2CCF836
:100BE0000420816380F82110016B0022002980F825
:100BF00020205BD0BDE81040084700BF0823C4F2A6
:100C00000203994222D01C23C4F20203994223D149
:100C100040231360C16A51BB48E000BF0823C4F2FF
:100C2000020399422ED01C23C4F2020399422BD115
:100C3000202331E04FF480631360C16AB9B935E015
:100C40004FF480431360C16A89B92FE00423136015
:100C5000C16A61B92AE000BF02F168044FF0806305
:100C6000A14208BF4FF480031360C16AF1B1BDE82F
:100C7000104008474FF400730EE000BF4FF40053DC
:100C80000AE000BF022307E002F168044FF000739E
:100C9000A14208BF4FF400131360816A002280F85C
:100CA000202019B1BDE81040084700BF10BD00006A
:100CB000014600284FF0010008BF70472DE9F043BE
:100CC000D1F800C04FF6F873CBF6FD734CF6CD4269
:100CD0006344CCF6CC42A3FB02236FF0030707EA80
:100CE00093030027C4F2020701F10C09C1E90F7355
:100CF0000223D1E9012E99E87002D1F81C8081F815
:100D00002130DCF8003043F6F077BB431A4342EA67
:100D10000E0222432A43324342EA090242EA08020F
:100D2000CCF8002000228A6381F8210081F820207D
:100D30000020BDE8F0437047F0B590F820C0BCF14A
:100D4000010F32D04FF0010E80F820E090F821C062
:100D5000BCF1010F26D14FF0020C80F821C04FF0FA
:100D6000000CC0F838C0D0E900C4C56AC66BDCF816
:100D70000070102C27F00107CCF80070006C0EFA00
:100D800000F070600846CCF8043004BF10460A46F4
:100D9000CCF80800CCF80C20DCF8000045B140F09D
:100DA0000E000DE0002180F820100220F0BD00BFF1
:100DB00020F00400CCF80000DCF8000040F00A004D
:100DC000CCF80000DCF8000040F00100CCF8000096
:100DD0000020F0BDB0B5044600F062F9054640F2CF
:100DE0000000C2F200000078611C18BF044400BF7C
:100DF00000F056F9401BA042FAD3B0BD10B582B046
:100E0000044600F04DF940F27001C2F200010A6898
:100E10000860821AB2F5967F29D30A20019047F222
:100E20006240C3F63A701F2C009005DC082C0BD0F2
:100E3000102C1CD14C200AE0202C07D0B4F5806F78
:100E400015D1552003E000BF522000E044206C463D
:100E50008DF803002046FFF76DFA82B240F2F800E9
:100E6000C2F2000021464FF0FF3300F0F1FD02B066
:100E700010BD000040F21441C4F201010A680242B0
:100E800014BF08607047FFF7B9BF00002DE9F04FAD
:100E900082B00E68002E00F0FF8041F20042C4F2E2
:100EA0000102042340F2004E904208BF03234FF694
:100EB000FF7CC4F2010E009300240123C1F2100C48
:100EC0004FF0000A4FF0000947E000BF012504F091
:100ED0000C030F279F402BEA070705FA03F33B4358
:100EE00042F82630D1F804B040F20C455FEACB223C
:100EF000DEF8082054BF22EA080242EA0802C4F2DF
:100F00000105CEF808202A685FEA8B2354BF22EA45
:100F1000080242EA08022A605FEA8B33DEF8042006
:100F200054BF22EA080242EA08025FEACB33CEF855
:100F30000420DEF800204FF0010354BF22EA08022B
:100F400042EA0802CEF800200E680AF1010A36FAD9
:100F50000AF204F1040400F09F8003FA0AF816EA8A
:100F6000080FF1D04A68624512DC122A56D8DFE831
:100F700002F0350B4549555555555555555555555F
:100F80005555554D510000BFD1F80C9046E000BFBB
:100F90004FF6FF75C1F22105AA420FDC0025C1F210
:100FA0001105AA421AD00025C1F21205AA4215D095
:100FB0000025C1F22105AA4210D02FE00025C1F280
:100FC0002205AA420AD00025C1F23105AA4205D065
:100FD0000025C1F23205AA4220D100BF8A684AB179
:100FE000012A14BFC0F81480C0F810804FF008091F
:100FF00014E000BF4FF0040910E000BFCA6802F11E
:1010000008090BE04FF0000908E000BFCA6802F1D0
:10101000040903E0CA6802F10C0900BF2246054634
:10102000BAF1080F24BF203A04352E680F279740E5
:10103000BE4309FA02F232432A60CA79D2067FF52A
:1010400083AF41F21803C4F202031A684FEA9A060A
:1010500042F001021A601A6840F6000302F0010231
:101060000192019AAEF57E7252F826B0C4F20103E5
:1010700098420FD040F60043C4F2010398423FF477
:1010800025AF41F20003C4F20103009D984208BF5E
:1010900002251CE700251AE702B0BDE8F08F00002A
:1010A00040F24010C2F200000068704740F20000B9
:1010B00040F24011C2F20000C2F2000100780A685A
:1010C000104408607047000080B542F20000C4F28E
:1010D0000200016841F010010160032000F08AF86D
:1010E000002000F005F800F027F8002080BD000087
:1010F00070B540F20006C2F2000640F208013278F4
:10110000C2F200014FF47A730968B3FBF2F20446AD
:10111000B1FBF2F1084600F0E5FB0F2C4FF00105A2
:1011200008D838B94FF0FF3021460022002500F0E2
:1011300035F87460284670BD82B041F21800C4F2E0
:1011400002000168022241F001010160016801F022
:10115000010101910199416841F08051416040686D
:1011600000F08050009000980420C4F20100016853
:1011700062F31A61016002B070470000002848BFA6
:10118000704700F01F01012202FA01F14EF2001235
:101190004009CEF2000242F82010704710B54EF61A
:1011A0000C5CCEF2000CDCF80030C3F3022E8EF0A3
:1011B0000704042C28BF0424BEF103034FF0FF3EB4
:1011C0000EFA04F438BF0023A14399400EFA03F34A
:1011D0009A4300F00F03043B1143634409010C33AD
:1011E00000F16042B0F1FF3FC8BF02F564431970DF
:1011F00010BD00004EF60C51CEF200010A684FF609
:10120000FF031A4060F30A2242F0806040F0FD7054
:10121000086070472DE9F04182B00446007841F241
:101220001C06C007C4F202064AD0306810F080588D
:1012300008D1306840F080503060306800F0805055
:101240000190019847F20007C4F200073868C00512
:1012500012D4386840F480703860FFF721FF0546EB
:101260003868C00508D4FFF71BFF401B6428F7D976
:10127000032002B0BDE8F081706810F4407012D015
:10128000616801F4407188420DD0706840F24042BC
:10129000C4F24222012320F4407113600023C007EE
:1012A000136071602AD17068616820F4407008434F
:1012B000B8F1000F706003D1306820F080503060CA
:1012C0002068810707D556F8181CA26821F4404110
:1012D000114346F8181CC00604D4002002B0BDE833
:1012E000F08100BF56F8180CE16820F48000084334
:1012F00046F8180C002002B0BDE8F081FFF7D0FEE0
:10130000054641F2883700BF70688007CBD4FFF7ED
:10131000C7FE401BB8424FF00300F5D9EBE70000D1
:101320002DE9F04381B0002800F0858042F20008EA
:10133000C4F202080446D8F800000D4600F0070089
:1013400088420CD2D8F8000020F007002843C8F8E3
:101350000000D8F8000000F00700A8426BD1206818
:1013600041F204098107C4F2020917D5410705D5E6
:10137000D9F8001041F4E061C9F80010010705D563
:10138000D9F8001041F46051C9F80010D9F80010E4
:10139000A26821F0F0011143C9F80010C00741D143
:1013A000D8F8000000F00700A8420CD9D8F80000D7
:1013B00020F007002843C8F80000D8F8000000F02B
:1013C0000700A84237D12068410707D5D9F8001097
:1013D000E26821F4E0611143C9F80010000708D564
:1013E000D9F80000216920F4605040EAC100C9F832
:1013F0000000D9F8002002F00C00082841F200207B
:10140000C0F27A0050D141F6B273C2F38341C0F604
:101410000003595CD2033BD440F60010C0F23D00FB
:10142000484341E0606802280AD001282AD159F8CF
:10143000041C890308D4012001B0BDE8F08300BF7B
:1014400059F8041C8901F6D5D9F8001021F00301E0
:101450000843C9F80000FFF723FE064641F288372B
:10146000D9F80000616800F00C00B0EB810F97D054
:10147000FFF716FE801BB842F2D9032001B0BDE889
:10148000F08300BF59F8041C8907D4D5DCE700BFFE
:10149000D9F8002041F6B073C2F34042C0F6000311
:1014A0009A5C4843B0FBF2F0D9F8001041F698720C
:1014B000C1F30311C0F60002515C40F2080220FAA9
:1014C00001F140F20400C2F200000068C2F2000222
:1014D0001160FFF70DFE002001B0BDE8F0830000B1
:1014E00040F2080041F20401C2F20000C4F202011D
:1014F0000068096841F6A872C1F30221C0F6000233
:10150000515CC8407047000040F2080041F20401FD
:10151000C2F20000C4F202010068096841F6A87234
:10152000C1F3C221C0F60002515CC8407047000000
:101530002DE9F04182B0002868D00446007841F2DD
:101540000006C007C4F2020625D0706800F00C0047
:1015500004281BD0706800F00C00082802D17068C5
:10156000C00313D46068002800F06881B0F5A02F94
:1015700000F07C81B0F5803F00F07C81306820F481
:1015800080303060306820F4802076E1306880035D
:1015900001D56068D0B32078800718D5706810F046
:1015A0000C0F07D0706800F00C0008286ED170682E
:1015B000C0036BD43068800702D52069012825D18B
:1015C0003068616920F0F80040EAC100306020789E
:1015D00000071FD42078400732D4E56995B17068C0
:1015E00000F00C00082840F08F80012D0ED07068AC
:1015F000216A00F480328A4208D1616A00F47010D6
:10160000884203D1002002B0BDE8F081012002B081
:10161000BDE8F081A069002862D00020C4F2422019
:101620000121C0F88014FFF73BFD0546706A800772
:1016300000F18C80FFF734FD401B0228F6D92AE127
:10164000F06910F0805808D1F06940F08050F061E6
:10165000F06900F080500090009847F20007C4F253
:1016600000073868C00529D4386840F480703860B5
:10167000FFF716FD054600BF3868C0051ED4FFF70A
:101680000FFD401B6428F7D905E100BF2069002841
:1016900040F20000C4F2422000F08280012101608B
:1016A000FFF7FEFC054600BF306880073FF588AFB6
:1016B000FFF7F6FC401B0228F6D9ECE0E0680028B2
:1016C00000F08080052800F09780012800F09880C5
:1016D000306A20F001003062306A20F0040092E0AD
:1016E0000020C4F242200021C0F88014FFF7D8FC8B
:1016F000054600BF706A80077FF56CAFFFF7D0FC2E
:10170000401B0228F6D9C6E00027C4F24227002079
:101710003866FFF7C5FC022D05460BD13068800105
:1017200040F1BE80FFF7BCFC401B02284FF00300D5
:10173000F4D968E7306880017FF564AFFFF7B0FC4B
:10174000401B02284FF00300F4D95CE740F2080088
:10175000C2F20000006844F6D351C1F26201A0FB5E
:101760000101480A019000BF00BF0198411E0028F6
:1017700001913FF42FAF00BF0198411E0028019155
:101780003FF428AF00BF0198411E002801913FF4AB
:1017900021AF00BF0198411E00280191E4D119E753
:1017A00000210160FFF77CFC054600BF3068800720
:1017B0007FF50DAFFFF774FC401B02284FF00300CC
:1017C000F4D920E7306A20F001003062306A20F05E
:1017D00004003062FFF764FC054641F2883700BF21
:1017E000306A800720D5FFF75BFC401BB8424FF002
:1017F0000300F5D907E700BF306A40F0040030620B
:10180000306A40F001003062FFF74AFC054641F2C1
:10181000883700BF306A800706D4FFF741FC401BC1
:10182000B842F7D937E000BFB8F1000F7FF4D5AE6A
:10183000F06920F08050F061CFE600BF306820F4FE
:1018400080303060306820F480203060FFF728FC62
:10185000054600BF306880037FF59DAEFFF720FC92
:10186000401B64284FF00300F4D9CCE6306840F404
:1018700080203060306840F480303060FFF710FC2A
:10188000054600BF306880033FF585AEFFF708FCD2
:10189000401B6428F6D9032002B0BDE8F08100BFE8
:1018A000206AB0F5803F05D17168A26821F400314B
:1018B000114371607168626A21F474111043084326
:1018C000706001203866FFF7EBFB0446306880014A
:1018D0003FF598AEFFF7E4FB001B02284FF0030032
:1018E000F4D990E6411E0020B0EB116F1CBF01201F
:1018F00070474EF21002CEF2000251604EF62351B4
:10190000CEF20001F0230B70072190601160704748
:10191000002804BF0120704710B5044690F841002C
:1019200028B9002084F84000204600F061F8242007
:1019300084F841002068D4E90212C36823F40053FC
:10194000C360036923F440531A430261D4E90423BA
:101950001143C268194341F20C639A431143C160B9
:101960004169A26921F44071114343F60002C4F2B7
:1019700001029042416103D0FFF7B2FD02E000BFD7
:10198000FFF7C2FD6268192148439100B0FBF1F0F6
:1019900048F21F51C5F2EB11A0FB01235A096FF069
:1019A000630302FB0300322303EB0010A0FB0101E1
:1019B000F02303EA5113206803EB0212C1F3431131
:1019C00011448160016921F490410161416921F074
:1019D0002A014161C16841F40051C1600020202109
:1019E000606484F8411084F84210606310BD000008
:1019F00080B586B044F200410068C4F200010022C4
:101A00008842049202D006B080BD00BF41F21800A7
:101A1000C4F20200426842F400324260426802F4BA
:101A200000320192019A026842F0040202600068EA
:101A300000F00400019001980C2002900220039015
:101A4000059001F5444002A9FFF720FA06B080BDD9
:101A50002DE9F041044690F8410020281CBF0220E7
:101A6000BDE8F0810F4600294FF0010000F04881E9
:101A70001646002A08BFBDE8F0814FF0000821207B
:101A80001D46C4F8448084F84100FFF709FBA68492
:101A9000E684A1680646B1F5805F05D1206900287B
:101AA00014BF3846B8460746E08C002800F08E8008
:101AB000681C00F08D8035B9206828E0FFF7F0FA47
:101AC000801BA8422CD8206801680906F6D51FB1F2
:101AD00017F8011B05E000BF38F8021B00276FF361
:101AE0005F214160E18C0139E184E18C0029EBD177
:101AF0008EE000BF38F8021B00276FF35F214160C2
:101B0000E18C0139E184E18C002900F081800168D9
:101B1000090605D5002FEDD017F8011BEFE700BF30
:101B2000206850E8030F216820F4D07041E80302D8
:101B3000BAB3206850E8030F216820F4D07041E860
:101B4000030272B3206850E8030F216820F4D070BC
:101B500041E803022AB3206850E8030F216820F40B
:101B6000D07041E80302002ADAD11AE0206850E878
:101B7000050F216820F0010041E80502DAB1206874
:101B800050E8050F216820F0010041E8050292B1FC
:101B9000206850E8050F216820F0010041E80502A7
:101BA0004AB1206850E8050F216820F0010041E8A3
:101BB0000502002ADAD1202084F8410084F842008E
:101BC000002084F840000320BDE8F08120681FE079
:101BD000206802E00168090609D4016809065FBFB0
:101BE00001685FEA016101685FEA0161F2D51FB136
:101BF00017F8011B05E000BF38F8021B00276FF340
:101C00005F214160E18C0139E184E18C0029E4D15C
:101C1000016849060FD4FDB1691C17D10168490656
:101C20005FBF01685FEA416101685FEA416102D418
:101C300001684906F2D5202084F841000020BDE863
:101C4000F08100BF206800684006F4D4FFF728FA4E
:101C5000801BA842F6D900BF206850E8030F216816
:101C600020F4D07041E80302BAB3206850E8030FB3
:101C7000216820F4D07041E8030272B3206850E874
:101C8000030F216820F4D07041E803022AB32068D2
:101C900050E8030F216820F4D07041E80302002AC5
:101CA000DAD11AE0206850E8050F216820F0010021
:101CB00041E80502DAB1206850E8050F216820F0FC
:101CC000010041E8050292B1206850E8050F216843
:101CD00020F0010041E805024AB1206850E8050FF4
:101CE000216820F0010041E80502002ADAD1202015
:101CF00084F8410084F84200002084F8400003206A
:101D0000BDE8F081FEE70000FEE70000FEE700000E
:101D10007047000070470000FFF7C8B97047000027
:101D2000FEE70000A4B0FFF7CFF900240120CDE9C1
:101D30000744CDE90544069010200225079002A82B
:101D4000CDE903442394CDE92144CDE91F44CDE9F5
:101D50001D44CDE91B440295CDE909540B94FFF7CE
:101D6000E7FB28B1EFF3108072B600BFFEE700BFBB
:101D70000F20CDE91F054FF48060CDE922041FA894
:101D800000212194FFF7CCFA20B1EFF3108072B656
:101D9000FEE700BF4FF0020900241BA8CDF86C90AD
:101DA0001D94FFF737FA28B1EFF3108072B600BF29
:101DB000FEE700BF41F218070594C4F20207386835
:101DC00040F6000840F0040038603868C4F20108AA
:101DD00000F004001F901F98386802AD40F0080022
:101DE00038603868294600F008001F901F984FF4AB
:101DF0000070CDE9020440460494FFF747F84FF421
:101E0000806000260290C1F2110640462946CDE9C5
:101E10000364FFF73BF83820CDE9020608F580603F
:101E200029460494FFF732F8092000210022FFF729
:101E3000B5F90920FFF7A2F90A2000210022FFF7D7
:101E4000ADF90A20FFF79AF9172000210022FFF7C9
:101E5000A5F91720FFF792F9282000210022FFF7AB
:101E60009DF92820FFF78AF957F8040C002140F06B
:101E7000010047F8040C57F8040C002200F00100A0
:101E8000029002980B20FFF789F90B20FFF776F9F3
:101E900040F27007C2F2000708F5E051384640F8FA
:101EA000141F4FF4807101254FF4602205730475EF
:101EB000C261C0E90141C0F81090FEF78FFC28B163
:101EC000EFF3108072B600BFFEE700BF0020CDE93F
:101ED0000205072007F11405049002A92846FEF721
:101EE000BBFB28B1EFF3108072B600BFFEE700BF66
:101EF000012002900220039002A92846FEF7ACFBC5
:101F000020B1EFF3108072B6FEE700BF40F2F80098
:101F1000A8F54441C2F2000000230C264FF4E13240
:101F200080E80E00C0E90333C0E90563C361FFF731
:101F3000EFFC28B1EFF3108072B600BFFEE700BFE0
:101F400007F10C0128460222FEF74CFD40F2F8068C
:101F50000FF2380802ADC2F2000600BFD7E9033421
:101F6000284664214246C7E901340094FEF730F95F
:101F70002846FEF7DFF982B2304629464FF0FF339C
:101F8000FFF766FD6420FEF725FFE7E76A733A2551
:101F90006C752C256C750A00000000000000000024
:101FA00001020304060708090000000001020304FF
:101FB000010202030405060708090A0B0C0D0E0FA7
:101FC00010100000E81F00080000002010000000B2
:101FD00028010008F81F0008100000203807000042
:101FE0004401000800000000010000001000000093
:081FF0000024F40000000000D1
:04000005080000ED02
:00000001FF
